:100000000C9463000C948B000C948B000C948B006C
:100010000C948B000C948B000C948B000C948B0034
:100020000C948B000C948B000C948B000C948B0024
:100030000C948B000C948B000C948B000C948B0014
:100040000C94D1090C948B000C94E70A0C942E0BA1
:100050000C948B000C948B000C948B000C948B00F4
:100060000C942A080C948B00000000002400270048
:100070002A0000000000250028002B0000000000DE
:1000800023002600290004040404040404040202DA
:100090000202020203030303030301020408102007
:1000A0004080010204081020010204081020000012
:1000B0000007000201000003040600000000000029
:1000C0000000F206A50C11241FBECFEFD8E0DEBF62
:1000D000CDBF11E0A0E0B1E0E4E3FBE102C0059098
:1000E0000D92A032B107D9F713E0A0E2B1E001C050
:1000F0001D92A734B107E1F710E0C6ECD0E004C0D0
:100100002297FE010E94940DC23CD107C9F70E94BC
:10011000F50C0C94980D0C940000AF92BF92CF9206
:10012000DF92EF92FF920F931F936C0146E9A42E8A
:1001300042E0B42EC501B6010E94BE09E82E089423
:10014000C11CD11CC501B6010E94BE09FF2400E0FC
:1001500010E0102F0F2DFE2CEE2490E0A0E0B0E078
:10016000E82AF92A0A2B1B2B0894C11CD11CC501B3
:10017000B6010E94BE09102F0F2DFE2CEE2490E038
:10018000A0E0B0E0E82AF92A0A2B1B2B0894C11C36
:10019000D11CC501B6010E94BE09102F0F2DFE2CE7
:1001A000EE2490E0A0E0B0E0E82AF92A0A2B1B2B0D
:1001B000B701C8011F910F91FF90EF90DF90CF9092
:1001C000BF90AF90089586E992E063E170E00E94ED
:1001D000BE0990E0813009F491E0892F08958F9253
:1001E0009F92AF92BF92CF92DF92EF92FF920F93C6
:1001F0001F93CF93DF934B015C0154E1C52ED12CAB
:100200001AC0C6010E948D007B018C0186E992E034
:10021000BE010E94BE09482FE814F9040A051B0517
:1002200031F44E7F86E992E0BE010E94C50985E067
:1002300090E0C80ED91EE601249686E992E0BE0140
:100240000E94BE098F3FE9F6DF91CF911F910F9178
:10025000FF90EF90DF90CF90BF90AF909F908F90E6
:1002600008957F928F929F92AF92BF92CF92DF922A
:10027000EF92FF920F931F93CF93DF935B016C017B
:10028000E4E0440F551FEA95E1F777247394742A4C
:1002900074E1872E912CE401249686E992E0BE0158
:1002A0000E94BE098F3FC1F0C4010E948D007B01F6
:1002B0008C0186E992E0BE010E94BE09EA14FB04AB
:1002C0000C051D0521F486E992E0BE011BC085E006
:1002D00090E0880E991EDFCFCE01EC2E192FA501DC
:1002E0005070AB2CBC2CCD2CDD24219786E992E0FC
:1002F000BE010E94C509C815D90589F786E992E0B3
:100300006E2D712F472D0E94C509DF91CF911F914E
:100310000F91FF90EF90DF90CF90BF90AF909F90A4
:100320008F907F9008950F931F930EE112E0C80104
:1003300061E470E00E94B806C80162E60E943A07D4
:10034000C80160E00E943A07C80160E00E943A07D5
:10035000C80160E00E943A07C80160E00E943A07C5
:10036000C80160E00E943A07C80160E00E943A07B5
:10037000C80162E60E943A07C8010E946A071F91FD
:100380000F9108950F931F930EE112E0C80161E4ED
:1003900070E00E94B806C80162E60E943A07C801F0
:1003A00061E00E943A07C80160E00E943A07C80174
:1003B00060E00E943A07C80160E00E943A07C80165
:1003C00060E00E943A07C80160E00E943A07C80155
:1003D00063E60E943A07C8010E946A071F910F91C5
:1003E0000895EF92FF920F931F93DF93CF9300D066
:1003F00000D00F92CDB7DEB78EE192E061E470E0FD
:1004000041E050E00E9487078EE192E00E94C20620
:10041000892B09F4AAC08EE192E00E94CB068E36A9
:10042000910509F0A2C08E010F5F1F4F85E0F80112
:1004300011928A95E9F781E0809338018EE192E08C
:1004400061E470E00E94B8068EE192E062E50E94ED
:100450003A078EE192E00E946A078EE192E061E441
:1004600070E045E050E00E948707A6E0EA2EF12CFC
:10047000EC0EFD1E8EE192E00E94C206892B31F047
:100480008EE192E00E94CB06F80180830F5F1F4F40
:100490000E151F0579F78D818E3411F58EE192E0EE
:1004A00061E470E00E94B8068EE192E062E50E948D
:1004B0003A078EE192E00E946A078EE192E061E4E1
:1004C00070E041E050E00E9487078EE192E00E94D8
:1004D000C206892B29F08EE192E00E94CB068D8323
:1004E0001A816B810C81ED81212F30E040E050E0DA
:1004F000522F442733272227862F90E0A0E0B0E038
:10050000DC0199278827282B392B4A2B5B2B8E2F30
:1005100090E0A0E0B0E0282B392B4A2B5B2B802FFA
:1005200090E0A0E0B0E0BA2FA92F982F8827282BC1
:10053000392B4A2B5B2B2093400130934101409390
:10054000420150934301912F80E070E0862B972B5E
:1005500090932D0180932C01902F80E0F0E08E2B62
:100560009F2B90932F0180932E010F900F900F904F
:100570000F900F90CF91DF911F910F91FF90EF900F
:1005800008950F931F93CF93DF9380912201909151
:100590002301A0E0B0E0AC013327222780912401A1
:1005A00090912501A0E0B0E0282B392B4A2B5B2B42
:1005B00020933C0130933D0140933E0150933F0115
:1005C00080912001909121018432910509F442C06B
:1005D0008532910588F48132910559F18232910575
:1005E00020F4809709F077C014C08232910531F170
:1005F000839709F070C029C086329105B1F1863227
:10060000910568F188329105C1F18C9709F063C0BA
:1006100056C00E94C2010E94190A6093440170935F
:100620004501809346019093470181E080933A0110
:1006300052C0CA01B90140E050E004C0CA01B9018A
:1006400041E050E00E94310146C0CA01B90142E0D8
:1006500050E0F8CFCA01B9010E94EF003CC086E922
:1006600092E063E170E041E005C086E992E063E179
:1006700070E040E00E94C5092EC0E0E2F1E0119276
:10068000119281E0E833F807D1F7C4E1D0E00DC062
:100690008E010B5F1F4F86E992E0BE014FEF0E9473
:1006A000C5092196C017D107B1F7BE016C5F7F4F16
:1006B00086E992E00E94BE098F3F51F70CC010926C
:1006C0002D0110922C0110922F0110922E011092E8
:1006D000310110923001DF91CF911F910F91089558
:1006E0008F929F92AF92BF92CF92DF920F93DF9340
:1006F000CF9300D000D0CDB7DEB780913A018823E8
:10070000B9F00E94190A20914401309145014091AD
:100710004601509147012053384F4F4F5F4F2617E6
:1007200037074807590720F40E94930110923A01B5
:100730008FEF9FEF909321018093200180E291E061
:100740000E948805909337018093360180912001A3
:10075000909121018F5F9F4F11F00E94C1020E9472
:10076000F10180913801813009F0BDC0109239014A
:100770001092380180913B01882309F4ABC00E949C
:10078000190A209148013091490140914A01509144
:100790004B0128573C4E4F4F5F4F6217730784073A
:1007A000950708F097C060914001709141018091D8
:1007B00042019091430140E050E00E9431011092CB
:1007C0003B0174C031E1B316B1F041E2B41621F03F
:1007D00051E0B516B1F40FC0A0923901A0923B01CF
:1007E0000E94190A609348017093490180934A015D
:1007F00090934B0106C00E94E300882311F4A0925D
:10080000390101E085E090E0C80ED91E94E0892E00
:10081000912C8C0C9D1C86E992E0B4010E94BE09CB
:100820008F3F09F10023F9F4C6010E948D0069830E
:100830007A838B839C8386E992E0B4010E94BE098F
:10084000B82E8091400190914101A0914201B09158
:10085000430129813A814B815C81281739074A0776
:100860005B0781F6AFCF0E94E300882339F080E078
:1008700091E0909331018093300104C010923101D6
:1008800010923001002349F08B2D90E0209130012F
:1008900030913101822B932B05C0809130019091D2
:1008A00031018F6F90933101809330018091390134
:1008B0008823C9F00E94C2010E94190A6093440172
:1008C00070934501809346019093470181E08093A6
:1008D0003A0109C010923B0100E084E1C82ED12CFE
:1008E000AA24A39493CF0F900F900F900F90CF91C5
:1008F000DF910F91DF90CF90BF90AF909F908F903E
:1009000008950F931F938EE192E00E948A070E9440
:100910009301E0E2F1E01192119281E0E833F807EF
:10092000D1F760E07BE480E090E04CE320E00CE075
:1009300010E00E942A0586E992E063E170E00E94DF
:10094000BE098F3F39F486E992E063E170E040E050
:100950000E94C5091F910F910895ECE4F1E02FEF7B
:100960003FEF682F70E06E0F7F1FA1E0B0EA12C06A
:10097000808190E02827392741E0C901817090707B
:1009800036952795892B11F02A273B274F5F493051
:10099000A1F73196E617F70759F7832F9927322FDA
:1009A0002227282B392BC9010895FF920F931F93FB
:1009B000CF93DF93F82E8091D101823018F061E05F
:1009C0000E94920A0CE411E0CF2DD0E0C00FD11F9D
:1009D00007C088E293E0F80161918F010E94690CE1
:1009E0000C171D07B1F78091D6019091D7010E9495
:1009F000270A8091D101823018F060E00E94920AAB
:100A0000DF91CF911F910F91FF900895282F809132
:100A1000D2019091D30101969093D3018093D2019A
:100A20008091CE018823A9F48091CF0180934C015D
:100A30008091D001806880934D0120934E0183E026
:100A40000E94AD0490934F018093500185E00E9475
:100A5000D5040895BF92CF92DF92EF92FF920F9349
:100A60001F936B017C01B22E4093CF0188E293E08B
:100A7000B701A6010E94770B81E08B1558F4B09264
:100A8000D1018B2D61E00E946C0A8091D10160E060
:100A90000E94920A81E0C8168BE4D80680E0E8063E
:100AA00080E0F8066CF08EEE92E09093D501809392
:100AB000D40186ED96E09093D7018093D60118C0BB
:100AC00060EC71EE84EE90E0A70196010E94630D48
:100AD0003093D5012093D40160EC7EE086E192E072
:100AE000A70196010E94630D3093D7012093D60190
:100AF0001093CD010093CC011092D3011092D2013A
:100B00001F910F91FF90EF90DF90CF90BF900895CD
:100B1000CF92DF92FF920F931F93CF93DF936C01DD
:100B2000FF2400E01BC0002329F088E293E00E942C
:100B30002E0C0EC080E8F81609F401E088E293E07C
:100B40000E942E0CEF2DF0E0E45BFE4F8083F394C7
:100B50008091D4019091D5010E94270A88E293E008
:100B60000E94FD0B892BF9F6002369F02091D20138
:100B70003091D3012F5F3F4F3093D3012093D201A7
:100B800021503040ECC087E08F1508F0D7C090911D
:100B90004C011092CE01992319F481E08093CE018B
:100BA0008091CF01981729F08091CE01882309F414
:100BB000D2C0CF2DD0E0FE01E45BFE4F3297919181
:100BC00080E0008110E0082B192B8F2D82500E94AD
:100BD000AD048017910709F0B5C060914D01609395
:100BE000D00190914E0180E020914F01422F50E0C2
:100BF000482B592B9091500180E02091510130E019
:100C0000282B392B8901040F151F8091CE018823D1
:100C100009F04BC0862F8350823008F046C0809187
:100C2000CC019091CD014817590708F081C02E33AF
:100C3000310508F07BC08017910708F477C0220FB8
:100C4000331FE5E0FE2EF20E8091CF0180934C0120
:100C500020934E01DA01AA0FBB1FAC0DBD1D9A01F6
:100C600043E013C09C9111968C911197E42FF0E012
:100C7000E45BFE4F80834F5FE42FF0E0E45BFE4FC8
:100C800090834F5F2F5F3F4F12962017310750F32D
:100C90008F2D82500E94AD04EF2DF0E0E45BFE4FFB
:100CA0003297919380838F2D3EC0603109F042C00E
:100CB0008091520190E029978C179D0709F042C05E
:100CC0008091CC019091CD014817590788F52C33BC
:100CD000310560F58017910748F1DA01AA0FBB1FB3
:100CE000AC0DBD1D9A0147E00FC0E42FF0E0E45BBE
:100CF000FE4F818190E0F081E0E08E2B9F2B8D9361
:100D00009D934E5F2F5F3F4F2017310770F386E0B2
:100D10000E94AD0490935201809353018091CE01C3
:100D20008823C9F488E00E94D50415C083E003C07D
:100D300082E001C081E00E9406050DC0FA9486E0C1
:100D40008F1548F08091D2019091D3010196909334
:100D5000D3018093D2012091D2013091D301C901F6
:100D6000DF91CF911F910F91FF90DF90CF90089569
:100D700081E080931D026093FA0110921B02109291
:100D80001C0208952091F90130E08091F801281BA0
:100D90003109C90108954091F8018091F90148177E
:100DA00018F02FEF3FEF0AC0E42FF0E0E852FE4FBB
:100DB0008081282F30E04F5F4093F801C9010895EA
:100DC000E091F8018091F901E81718F0EFEFFFEFDB
:100DD00006C0F0E0E852FE4F8081E82FF0E0CF013E
:100DE00008950895109221021092200288EE93E057
:100DF000A0E0B0E08093220290932302A09324020B
:100E0000B093250284E091E090931F0280931E022C
:100E10000895CF92DF92EF92FF920F931F93CF939B
:100E2000DF937C016B018A0180911D028823A1F070
:100E3000C0E0D0E00DC0D701ED91FC91D601AC0F20
:100E4000BD1F0190F081E02DC7016C91099521969D
:100E5000C017D10780F304C0CB01642F0E940F0894
:100E6000C801DF91CF911F910F91FF90EF90DF901C
:100E7000CF900895DF93CF930F92CDB7DEB7FC01EB
:100E8000698380911D028823C9F080911C02803201
:100E900038F081E090E09383828320E030E015C059
:100EA00080911B02E82FF0E0E550FE4F998190837E
:100EB0008F5F80931B0280931C0205C0CE010196B8
:100EC00061E00E940F0821E030E0C9010F90CF914E
:100ED000DF9108958091FA016BEF71E040911C025F
:100EE00021E00E94CC0710921B0210921C0210926B
:100EF0001D020895413208F040E2862F68ED71E04E
:100F00000E9495071092F8018093F90108950E94BC
:100F10007A0708951092F8011092F90110921B02BD
:100F200010921C020E94A5090895982F413210F0DA
:100F300040E030C080912A028823E1F781E080936D
:100F40002A028FEF809395021092500241504093F5
:100F500051024F5F990F916090932B0285EE809321
:100F6000BC0080912A028130E1F380915002841705
:100F700010F44091500220E030E00AC0FB01E20F83
:100F8000F31FD901A05DBD4F8C9180832F5F3F4F30
:100F90002417A0F3842F08951F93582F122F413246
:100FA00010F081E03AC080912A028823E1F782E0C4
:100FB00080932A028FEF8093950210925002409303
:100FC0005102A0E3B2E0FB0102C081918D938E2F0C
:100FD000861B8417D0F3852F90E0880F991F80938C
:100FE0002B0285EE8093BC00112321F080912A0210
:100FF0008230E1F3809195028F3F11F480E00DC0C3
:1010000080919502803211F482E007C080919502B0
:10101000803311F084E001C083E01F910895482FD0
:10102000613210F081E0089580912A02843011F03D
:1010300082E0089560937302A2E5B2E0842F9C01E0
:10104000F90102C081918D938E2F841B8617D0F3F6
:1010500080E008951F920F920FB60F9211242F93E4
:101060003F934F935F936F937F938F939F93AF9330
:10107000BF93EF93FF938091B90090E0887F9070C9
:101080008036910509F4DCC081369105CCF58832B3
:10109000910509F47BC089329105B4F48031910542
:1010A00009F46FC0813191053CF4009709F431C116
:1010B000089709F039C165C08831910509F466C007
:1010C000809709F031C17DC08034910509F49FC03B
:1010D0008134910544F48033910509F47DC0C897AB
:1010E00009F022C184C08035910509F484C0883597
:1010F000910509F491C08834910509F015C198C093
:101100008839910509F4FDC089399105ECF48837D7
:10111000910509F495C0893791054CF488369105FD
:1011200009F48EC08037910509F0FEC089C0883867
:10113000910509F4E6C08039910509F487C080382B
:10114000910509F0F1C082C0803B910509F4B0C05F
:10115000813B91054CF4803A910509F489C0883AA5
:10116000910509F0E1C0A4C0803C910509F4CDC00F
:10117000883C910509F4C9C0883B910509F0D4C0A9
:10118000ACC080912B028093BB00B9C090915002FB
:1011900080915102981768F490915002E92FF0E085
:1011A000E05DFD4F80818093BB009F5F9093500274
:1011B000A6C085ED8093BC008091BC0084FDFCCF6F
:1011C000B1C080E28093950285ED8093BC00809150
:1011D000BC0084FDFCCFA6C080E38093950285ED22
:1011E0008093BC008091BC0084FDFCCF9BC088E351
:1011F000809395028AC0809150029091BB00E82FA5
:10120000F0E0E05DFD4F90838F5F809350029091FE
:1012100050028091510271C0809150029091BB00A8
:10122000E82FF0E0E05DFD4F90838F5F80935002E8
:1012300085ED8093BC008091BC0084FDFCCF72C022
:1012400083E080932A021092940259C08091940204
:10125000803208F056C0809194029091BB00E82F34
:10126000F0E0EC58FD4F90838F5F8093940247C06D
:1012700080919402803230F4E0919402F0E0EC58D6
:10128000FD4F108285ED8093BC008091BC0084FDF1
:10129000FCCF10922A0260919402E0912E02F0910C
:1012A0002F0284E792E070E00995109294022DC01D
:1012B00084E080932A021092720210927302E091ED
:1012C0002C02F0912D02099580917302882329F454
:1012D00081E0809373021092520290917202E92F82
:1012E000F0E0EE5AFD4F80818093BB009F5F9093AA
:1012F00072029091720280917302981710F485EC3B
:1013000001C085E88093BC000FC085EC8093BC00D1
:1013100009C01092950285ED8093BC008091BC00BD
:1013200084FDFCCF10922A02FF91EF91BF91AF9103
:101330009F918F917F916F915F914F913F912F91ED
:101340000F900FBE0F901F90189510922A0282E105
:1013500061E00E94920A83E161E00E94920AE9EB57
:10136000F0E080818E7F808380818D7F808388E420
:101370008093B80085E48093BC000895F999FECF6E
:1013800072BD61BDF89A80B50895F999FECF1FBA74
:1013900072BD61BD40BD0FB6F894FA9AF99A0FBEBE
:1013A00008951F920F920FB60F9211242F933F931F
:1013B0008F939F93AF93BF9380919B0290919C02D8
:1013C000A0919D02B0919E0230919F020196A11DB5
:1013D000B11D232F2D5F2D3720F02D570196A11D14
:1013E000B11D20939F0280939B0290939C02A09337
:1013F0009D02B0939E028091970290919802A091D5
:101400009902B0919A020196A11DB11D8093970295
:1014100090939802A0939902B0939A02BF91AF91D2
:101420009F918F913F912F910F900FBE0F901F9022
:1014300018958FB7F89420919B0230919C024091AF
:101440009D0250919E028FBFB901CA010895019774
:1014500039F0880F991F880F991F02970197F1F7AC
:101460000895789484B5826084BD84B5816084BD1C
:1014700085B5826085BD85B5816085BDEEE6F0E00D
:10148000808181608083E1E8F0E010828081826069
:101490008083808181608083E0E8F0E080818160EA
:1014A0008083E1EBF0E0808184608083E0EBF0E01A
:1014B000808181608083EAE7F0E0808184608083BE
:1014C0008081826080838081816080838081806868
:1014D00080831092C1000895482F50E0CA018656BB
:1014E0009F4FFC0124914A575F4FFA018491882352
:1014F000C1F0E82FF0E0EE0FFF1FE859FF4FA59174
:10150000B491662341F49FB7F8948C91209582237F
:101510008C939FBF08959FB7F8948C91822B8C93E6
:101520009FBF0895482F50E0CA0182559F4FFC018C
:101530002491CA0186569F4FFC0194914A575F4FF0
:10154000FA013491332309F440C0222351F12330AE
:1015500071F0243028F42130A1F0223011F514C0AC
:101560002630B1F02730C1F02430D9F404C0809186
:1015700080008F7703C0809180008F7D80938000F2
:1015800010C084B58F7702C084B58F7D84BD09C03B
:101590008091B0008F7703C08091B0008F7D8093E1
:1015A000B000E32FF0E0EE0FFF1FEE58FF4FA591C4
:1015B000B4912FB7F894662321F48C9190958923E8
:1015C00002C08C91892B8C932FBF089508951F9290
:1015D0000F920FB60F9211242F933F934F938F9337
:1015E0009F93EF93FF934091C6002091E0023091CA
:1015F000E1022F5F3F4F2F7330708091E202909194
:10160000E3022817390759F0E091E002F091E10276
:10161000E056FD4F40833093E1022093E002FF91BA
:10162000EF919F918F914F913F912F910F900FBE0E
:101630000F901F901895E0913403F0913503E05C12
:10164000FF4F8191919120813181821B930B8F7388
:101650009070892B11F00E94E60A08951F920F9254
:101660000FB60F9211242F933F934F935F936F9375
:101670007F938F939F93AF93BF93EF93FF932091AB
:101680002403309125038091260390912703281786
:10169000390731F48091C1008F7D8093C10016C05D
:1016A000E0912603F0912703EC51FD4F408180919A
:1016B000260390912703019660E470E00E942E0DAE
:1016C00090932703809326034093C600FF91EF91E8
:1016D000BF91AF919F918F917F916F915F914F914A
:1016E0003F912F910F900FBE0F901F901895AF92C2
:1016F000BF92DF92EF92FF920F931F93CF93DF93EE
:10170000EC017A018B01DD24403081EE580780E046
:10171000680780E0780711F0DD24D39491E0A92ECA
:10172000B12CEC89FD89DD2069F0C5010E8C02C069
:10173000880F991F0A94E2F7808360E079E08DE3D7
:1017400090E005C0108260E874E88EE190E0A801A6
:1017500097010E94410D2150304040405040569525
:1017600047953795279580E12030380720F0DD2018
:1017700011F0DD24D6CFE889F9893083EA89FB8925
:101780002083EE89FF89408121E030E0C9010A8C85
:1017900002C0880F991F0A94E2F7482B4083EE8914
:1017A000FF894081C9010B8C02C0880F991F0A94E0
:1017B000E2F7482B4083EE89FF894081C9010C8CF8
:1017C00002C0880F991F0A94E2F7482B4083EE89E4
:1017D000FF8980810D8C02C0220F331F0A94E2F72B
:1017E000209528232083DF91CF911F910F91FF90A7
:1017F000EF90DF90BF90AF900895DC011C96ED91C3
:10180000FC911D97E05CFF4F219131918081918186
:10181000281B390B2F733070C9010895DC011C9609
:10182000ED91FC911D97E05CFF4F20813181E054E8
:10183000F040DF01AE5BBF4F8D919C91119728174F
:10184000390719F42FEF3FEF07C08D919C91E80FF6
:10185000F91F8081282F30E0C9010895DC011C9612
:10186000ED91FC911D97E05CFF4F20813181E054A8
:10187000F040DF01AE5BBF4F8D919C91119728170F
:10188000390719F42FEF3FEF10C08D919C911197FC
:10189000E80FF91F20818D919C91119701968F730C
:1018A000907011969C938E9330E0C9010895FC01CD
:1018B00086859785DC01A05CBF4FFC01EE5BFF4F86
:1018C0002D913C9111978081918128173907C1F79B
:1018D0000895CF93DF93EC01462FEE85FF85E05C02
:1018E000FF4F80819181E054F040019660E470E008
:1018F0000E942E0D9C01DF01AE5BBF4F8D919C912C
:10190000119728173907D1F3E05CFF4F808191814F
:10191000E054F040E80FF91F4083EE85FF85E05C5E
:10192000FF4F31832083EE89FF89208181E090E0A1
:101930000D8C02C0880F991F0A94E2F7282B208390
:1019400081E090E0DF91CF91089510922B031092E7
:101950002A0388EE93E0A0E0B0E080932C039093FC
:101960002D03A0932E03B0932F0384E191E0909375
:1019700029038093280380EA92E0909335038093B3
:10198000340384EE92E0909337038093360385EC22
:1019900090E0909339038093380384EC90E0909327
:1019A0003B0380933A0380EC90E090933D03809357
:1019B0003C0381EC90E090933F0380933E0386ECE0
:1019C00090E0909341038093400384E0809342032E
:1019D00083E08093430387E08093440385E0809312
:1019E000450381E0809346030895CF93DF930E94DF
:1019F000310A0E948104CBE1DBE00E947003209752
:101A0000E1F30E941B0BF9CFCF92DF92EF92FF928E
:101A10000F931F93CF93DF937C016B018A01C0E08A
:101A2000D0E00FC0D6016D916D01D701ED91FC9111
:101A30000190F081E02DC7010995C80FD91F015011
:101A400010400115110571F7CE01DF91CF911F9163
:101A50000F91FF90EF90DF90CF90089597FB092EA4
:101A600007260AD077FD04D049D006D000201AF40A
:101A7000709561957F4F0895F6F7909581959F4FEA
:101A80000895A1E21A2EAA1BBB1BFD010DC0AA1FBF
:101A9000BB1FEE1FFF1FA217B307E407F50720F0D7
:101AA000A21BB30BE40BF50B661F771F881F991F52
:101AB0001A9469F760957095809590959B01AC019B
:101AC000BD01CF01089597FB092E05260ED057FDC5
:101AD00004D0D7DF0AD0001C38F4509540953095DB
:101AE00021953F4F4F4F5F4F0895F6F790958095A2
:101AF000709561957F4F8F4F9F4F0895AA1BBB1B19
:101B000051E107C0AA1FBB1FA617B70710F0A61BFD
:101B1000B70B881F991F5A95A9F780959095BC011E
:101B2000CD010895EE0FFF1F0590F491E02D09946B
:041B3000F894FFCF57
:101B3400000000003A070907C206CB06E006F106DA
:101B440000000000690C040DFD0B2E0C0E0C570C4C
:00000001FF
